:1000000014C1000043C1000041C100003FC1000015
:100010003DC100003BC1000039C1000037C10000F4
:1000200035C1000033C1000031C100002FC1000004
:100030002DC100002BC1000029C1000027C1000014
:1000400025C1000023C1000021C100001FC1000024
:100050001DC100001BC1000019C10000FEC100004D
:1000600015C100006DC2000042C200000FC10000B7
:100070000DC100000BC1000009C1000007C1000054
:1000800005C1000003C1000001C10000FFC0000065
:10009000FDC00000FBC00000F9C00000F7C0000078
:1000A000F5C00000F3C00000F1C00000EFC0000088
:1000B000EDC00000EBC00000E9C00000E7C0000098
:1000C000E5C00000E3C00000E1C00000DFC00000A8
:1000D000DDC00000DBC00000D9C00000D7C00000B8
:1000E000D5C000006B066E065D0661066706A506B4
:1000F000720676067C06800684068A068E069206BE
:10010000A50698069C06A0060000210024002700F2
:100110002A002D0030003300010100000401070116
:100120000A0100002200250028002B002E003100CB
:10013000340002010000050108010B01000020004D
:100140002300260029002C002F00320000010000AF
:10015000030106010901050505050705080808084A
:10016000020202020A0A080804040404010101014F
:10017000010101010303030303030303040707074A
:100180000C0C0C0C0C0C0C0C0202020206060606EF
:10019000060606060B0B0B0B0B0B0B0B01021020BC
:1001A00020080810204010204080020102010804AD
:1001B0000201010204081020408080402010080441
:1001C000020180040201804020100804020108049A
:1001D00002010102040810204080010204081020DE
:1001E000408000000A0B02090C0D0E0807030401F1
:1001F00000000000000000000000000000000000FF
:1002000000000000000000000000000000001211CB
:1002100010000000000000000000000000000000CE
:100220000000000000000000500D11241FBECFEFA1
:10023000D1E2DEBFCDBF00E00CBF12E0A0E0B2E033
:10024000E8E8FCE100E00BBF02C007900D92A23885
:10025000B107D9F723E0A2E8B2E001C01D92A33CA8
:10026000B207E1F711E0C5E1D1E000E006C0219757
:100270000109802FFE010E94360EC431D10780E0B3
:100280000807A9F70E94310A0C94420EB9CECF920A
:10029000DF92EF92FF920F931F93CF93DF936C0146
:1002A0007A018B01C0E0D0E0CE15DF0581F0D801E6
:1002B0006D918D01D601ED91FC910190F081E02DC1
:1002C000C6011995892B11F02196EECF7E01C70149
:1002D000DF91CF911F910F91FF90EF90DF90CF9022
:1002E0000895BC016E5F7F4FDC01ED91FC910190A0
:1002F000F081E02D40E0199591E0811190E0892F87
:100300000895089580E090E00895862F642FA0C797
:10031000862F642F46C6CF93DF93EC0160E08E8179
:1003200040D661E08E813DD660E08E813AD68BE882
:1003300091E00197F1F7DF91CF910895862F09C6DB
:100340000E943E0E6115710579F0FB0101900020BD
:10035000E9F73197AF01461B570BDC01ED91FC919A
:100360000280F381E02D199480E090E008958F924F
:100370009F92AF92BF92EF92FF920F931F93CF93F2
:10038000DF93CDB7DEB7A1970FB6F894DEBF0FBEEF
:10039000CDBF7C01FA01CB0119A2223008F42AE07A
:1003A0008E010F5D1F4F822E912CA12CB12CBF010D
:1003B000A50194010E94140EF901CA01015011090E
:1003C0006A3014F4605D01C0695CD8016C93232B22
:1003D000242B252B61F7B801C701B4DFA1960FB616
:1003E000F894DEBF0FBECDBFDF91CF911F910F916B
:1003F000FF90EF90BF90AF909F908F9008958FE8FF
:1004000092E00BD421E0892B09F420E0822F08959B
:100410003FB7F8948091870290918802A091890259
:10042000B0918A0226B5A89B05C02F3F19F001960E
:10043000A11DB11D3FBFBA2FA92F982F8827820F6A
:10044000911DA11DB11DBC01CD0142E0660F771FBA
:10045000881F991F4A95D1F708951F920F920FB6E2
:100460000F9211242F933F938F939F93AF93BF933A
:1004700080918B0290918C02A0918D02B0918E029E
:100480003091860223E0230F2D3720F40196A11D21
:10049000B11D05C026E8230F0296A11DB11D2093B2
:1004A000860280938B0290938C02A0938D02B0936E
:1004B0008E028091870290918802A0918902B0916A
:1004C0008A020196A11DB11D809387029093880234
:1004D000A0938902B0938A02BF91AF919F918F91AF
:1004E0003F912F910F900FBE0F901F9018951F9264
:1004F0000F920FB60F9211240BB60F922F933F93CA
:100500004F935F936F937F938F939F93AF93BF931B
:10051000EF93FF938FE892E08DD4FF91EF91BF911D
:10052000AF919F918F917F916F915F914F913F918B
:100530002F910F900BBE0F900FBE0F901F9018952C
:100540001F920F920FB60F9211240BB60F922F939A
:100550008F939F93EF93FF93E0919F02F091A002FE
:100560008081E091A502F091A60282FD12C09081E7
:100570008091A8028F5F8F732091A902821751F09A
:10058000E091A802F0E0E157FD4F958F8093A8021B
:1005900001C08081FF91EF919F918F912F910F90DA
:1005A0000BBE0F900FBE0F901F90189508958EBD33
:1005B00000000DB407FEFDCF8EB508958CBD9DBD26
:1005C00008951F93CF93DF93EC01162F83E590E0FE
:1005D000F5DF60E08E85E5D4812F8068E8DF80E07C
:1005E000E6DF182F61E08E85DCD4812FDF91CF917B
:1005F0001F9108950F931F93CF93DF93EC01062F64
:10060000142F83E590E0DADF60E08E85CAD4802F76
:10061000CEDF812FCCDF61E08E85DF91CF911F91FE
:100620000F91BFC48F929F92AF92CF92EF92FF92A1
:100630000F931F93CF93DF9300D01F921F92CDB7DC
:10064000DEB74C0182E08D8340E064E2C401D2DF7A
:1006500040E066E2C401CEDF46E268E4C401CADFDE
:1006600086E28B838D81823028F16CE1C401A9DFA1
:10067000482F4F776CE1C401BDDF87E08C83A12C4C
:10068000C12CCE0104967C018E010B5F1F4F9E0191
:100690002F5F3F4F41E0BE016D5F7F4FC401DBD450
:1006A00081110BC08D81823039F481E09C819111E0
:1006B00004C008C084E001C081E091E0823019F0FC
:1006C00090E001C091E0892F0F900F900F900F9054
:1006D0000F90DF91CF911F910F91FF90EF90CF90EE
:1006E000AF909F908F900895CF92DF92EF92FF92FC
:1006F0000F931F93CF93DF93EC016B01142F7901BC
:1007000040E062E077DF44E06AE0CE0173DF40E87A
:1007100064E1CE016FDFA601612FCE0170D443E00A
:1007200062E0CE0167DF08E813E16AE0CE0149DF4D
:1007300082FF10C040E062E0CE015CDF64E4CE01E5
:1007400040DFF701808362E4CE013BDFF701818364
:1007500080E004C00150110941F783E0DF91CF919F
:100760001F910F91FF90EF90DF90CF9008952F92FF
:100770003F924F925F926F927F928F929F92AF9231
:10078000BF92CF92DF92EF92FF920F931F93CF937E
:10079000DF93CDB7DEB72C970FB6F894DEBF0FBE50
:1007A000CDBF413508F005C1342E3B014C016CE151
:1007B00008DF482F4F776CE1C4011CDF222423940B
:1007C00032E0231691F083E02816E1F091E029123F
:1007D000F2C083E989833320D1F081E0F301908175
:1007E000953008F480E0B12C17C0F5E9F983332087
:1007F00081F081E0F3019081983008F480E043E0DB
:10080000B42E0AC087E9898336E0B32E04C0B12C28
:1008100002C023E0B22E80E0D32CF8E0BF9ED018B7
:100820001124D7FCD12C882321F098E89B8333E056
:1008300001C032E021E09D2D977009F420E09D2D4C
:10084000959595959595290F31F4882309F48EC0D7
:1008500038E0D30E8BC0811102C094E001C093E058
:10086000291708F4922FEB2DF0E03196E60DF71DD5
:10087000232F4191A1E0B0E0AC0FBD1FA20FB11D2D
:100880004C932F5F422F431B491798F3DECF811102
:10089000D9C09FE19D150CF490C080E2D82E90E75E
:1008A0009A839B818C8189279D8189279E818927B5
:1008B0008F839E01285F3F4F47E0BE016F5F7F4FF0
:1008C000C40112DF81119FC01A86E3E0EB87CE01DD
:1008D00007962C0199E09C87CA844C2D4295407F55
:1008E0004C0D6AE1C40186DEA12CCE010A967C0182
:1008F0008E01055F1F4F92014C85BE016F5F7F4FD8
:10090000C401A9D3182F823009F0C1CF6CE1C40112
:1009100058DE85FD97C08F7109F480E2282F30E002
:100920004D2DDD0C550B421753070CF044C0D82E4B
:1009300085958595859591E0980F422F477081E0C8
:1009400009F480E0890FE1E0F0E0EC0FFD1FE80F13
:10095000F11D215031092770332781E090E001C05B
:10096000880F2A95EAF79081892B80838FE18D1576
:100970000CF495CF9D2D97709A878D2D8595859533
:1009800085958E5F292FE0E18E9F200D11242A830B
:1009900021E0911101C020E0280F2C8744244394CA
:1009A000512C4C0E5D1E480E511CF9E0F81BFB87C4
:1009B00093CF16E047C015E045C08B81883809F415
:1009C0003EC082E094E0EB2DF0E03196E60DF71D9D
:1009D000980FA1E0B0E0AC0FBD1FA80FB11D2C9186
:1009E00021938F5F8913F5CF8B85833021F58A851D
:1009F000811121C09E012D5F3F4F41E0B201C40132
:100A000073DE882311F0182F1DC09B81F2018181B4
:100A1000981313C09C81828198130FC0808182FF3C
:100A200002C02394CDCEF3018387822D880F820DDF
:100A30008F5F808307C011E005C017E003C083E02B
:100A400093E0C1CF812F2C960FB6F894DEBF0FBE76
:100A5000CDBFDF91CF911F910F91FF90EF90DF906D
:100A6000CF90BF90AF909F908F907F906F905F904E
:100A70004F903F902F900895CF92DF92EF92FF9288
:100A80000F931F93CF93DF936C017C0187E0E80EF7
:100A9000F11CC0E0D0E0062F10E0B8010C2E02C01F
:100AA000759567950A94E2F76170F70181917F016E
:100AB00078D22196C430D10581F7C601DF91CF915C
:100AC0001F910F91FF90EF90DF90CF9024CCCF92A9
:100AD000DF92EF92FF920F931F93CF93DF93EC017E
:100AE000F62E642F8C815DD28D818F3F11F060E0F6
:100AF00058D28F850F2D10E084FF23C06E0187E050
:100B0000C80ED11CE12CF12CB8010E2C02C0759539
:100B100067950A94E2F76170F60181916F0141D205
:100B2000FFEFEF1AFF0A88E0E816F10469F7CE013B
:100B3000DF91CF911F910F91FF90EF90DF90CF90B9
:100B4000EACBB80184E0759567958A95E1F7CE0107
:100B500093DF6F2DCE01DF91CF911F910F91FF9009
:100B6000EF90DF90CF9088CF41E0B1DF81E090E05F
:100B7000089596E0899FD0011124A45DBC4F909602
:100B80007C936E935F9791E091969C93919790914F
:100B90009803E0919903F0919A03992339F03097E3
:100BA00051F0811108C08091480304C0309719F0BA
:100BB0005C968C9119940895FC01538D448D252FDA
:100BC00030E0842F90E0821B930B541710F0CF96E7
:100BD000089501970895FC01918D828D981761F019
:100BE000828DDF01A80FB11D5D968C91928D9F5F64
:100BF0009F73928F90E008958FEF9FEF0895FC010F
:100C0000918D828D981731F0828DE80FF11D858DC1
:100C100090E008958FEF9FEF0895FC01918D228D54
:100C2000892F90E0805C9F4F821B91098F739927D9
:100C3000089580E090E0892B19F0E1DB811125C057
:100C400080E090E0892B41F080E090E0892B21F05A
:100C50000E94000081111CC080E090E0892B41F0CF
:100C600080E090E0892B21F00E940000811113C0E8
:100C700080E090E0892BA1F080E090E0892B81F06A
:100C80000E94000081110AC008950E940000D8CF80
:100C90000E940000E1CF0E940000EACF0C94000007
:100CA000089590E0FC013197E231F10508F04DC064
:100CB0008827EE58FF4F8F4FD9C7809180008F77DC
:100CC00003C0809180008F7D809380000895809183
:100CD0008000877FF9CF84B58F7702C084B58F7D80
:100CE00084BD08958091B0008F7703C08091B000DB
:100CF0008F7D8093B0000895809190008F7707C01A
:100D0000809190008F7D03C080919000877F8093B9
:100D1000900008958091A0008F7707C08091A00077
:100D20008F7D03C08091A000877F8093A0000895ED
:100D3000809120018F7707C0809120018F7D03C0B3
:100D400080912001877F80932001089540E0682FE3
:100D50008BE993E0BCCECF92DF92EF92FF920F939C
:100D60001F9396E0899FF0011124E45DFC4F11A2CE
:100D7000278D30A12130310531F158F02230310575
:100D800009F446C02330310509F04DC060E070E041
:100D900043C0662309F447C061E070E0EADE2FB784
:100DA000F89480918B0290918C02A0918D02B09169
:100DB0008E022FBF8093840390938503A0938603B4
:100DC000B093870330C09FB7F894C0908B02D09047
:100DD0008C02E0908D02F0908E029FBF0091840300
:100DE000109185032091860330918703C01AD10AA0
:100DF000E20AF30A009196031091970320E030E095
:100E00000C151D052E053F0518F462E070E004C0C6
:100E1000611109C063E070E01F910F91FF90EF90A6
:100E2000DF90CF90A6CE1F910F91FF90EF90DF90B3
:100E3000CF900895FC01848DDF01A80FB11DA35A46
:100E4000BF4F2C91848D90E001968F739927848FEA
:100E5000A689B7892C93A089B1898C91837080640D
:100E60008C93938D848D981306C00288F389E02DAE
:100E700080818F7D80830895EF92FF920F931F935F
:100E8000CF93DF93EC0181E0888F9B8D8C8D98133D
:100E900005C0E889F989808185FD25C0F62E0B8D76
:100EA00010E00F5F1F4F0F731127E02E8C8DE8129B
:100EB0000BC00FB607FCFACFE889F989808185FF5E
:100EC000F5CFCE01B7DFF2CF8B8DFE01E80FF11D1C
:100ED000E35AFF4FF0829FB7F8940B8FEA89FB89A2
:100EE000808180620AC09FB7F894EE89FF89608391
:100EF000E889F98980818370806480839FBF81E065
:100F000090E0DF91CF911F910F91FF90EF900895A6
:100F1000CF93DF93EC01888D8823C1F0EA89FB89A8
:100F2000808185FD05C0A889B9898C9186FD0EC098
:100F30000FB607FCF5CF808185FFF2CFA889B9896C
:100F40008C9185FFEDCFCE0175DFE8CFDF91CF919A
:100F50000895CF93DF93282F30E0F901EE51FE4F33
:100F60008491F901E456FE4FD491F901EA5AFE4FFB
:100F7000C491CC2389F0811194DEEC2FF0E0EE0FC8
:100F8000FF1FE45CFE4FA591B491EC91ED2381E04D
:100F900090E021F480E002C080E090E0DF91CF910A
:100FA00008951F93CF93DF93282F30E0F901EE517E
:100FB000FE4F8491F901E456FE4FD491F901EA5AAB
:100FC000FE4FC491CC23B9F0162F81116ADEEC2FAD
:100FD000F0E0EE0FFF1FEE5DFE4FA591B4919FB7BD
:100FE000F894111104C08C91D095D82302C0EC91D3
:100FF000DE2BDC939FBFDF91CF911F910895DF928D
:10100000EF92FF920F931F93CF93DF938C01F62EF5
:10101000D42EE52E83E590E0D1DA60E0F8018685F4
:10102000C0DF82E1C4DACD2DDE2DCE018F0D911D02
:101030007C01EC16FD0619F08991B9DAFACF61E06E
:10104000F8018685AEDFDF91CF911F910F91FF9060
:10105000EF90DF90ABCA4F925F926F927F928F9228
:101060009F92AF92BF92CF92DF92EF92FF920F9337
:101070001F93CF93DF931F921F92CDB7DEB74C0122
:101080002B01D42E3901E114F10419F0F70140814C
:1010900001C040E0B42EF0E1CF9EB00C112440E03E
:1010A00062E0C401A7DA4FE768E0C401A3DA40E8D0
:1010B00064E1C4019FDAA2016D2DC401A0DF4B2DB4
:1010C0006AE1C40197DA4CE062E0C40193DA6AE1B4
:1010D000C40177DA482F40686AE1C4018BDA80EDF9
:1010E000482E87E0582E68E0C4016BDA982F907381
:1010F00041F480FD04C081E0481A5108A1F783E063
:1011000094C06CE0C4015DDAD82E837109F08AC006
:101110006114710409F450C00115110509F44CC0A3
:1011200064E1C4014EDAB82EF80180818B1508F411
:1011300073C0B082BB20B1F183E590E03FDA60E09C
:10114000F40186852EDFBA9482E931DACC20A1F051
:101150008FEF90E02C0101C0440CCA94EAF782E9B9
:1011600026DA242D2095F301908192238421892B66
:101170008083CC24C39401C0C12C4C2C512C460C30
:10118000571CCB1430F482E912DAF2018083C39445
:10119000F4CF80E00CDAF201808361E0F40186850F
:1011A00000DF04DA68E1C4010CDA8770E114F104AD
:1011B00021F0F701808301C080E0D3FC2FC06114CF
:1011C000710471F10115110559F1AA2049F1F801D5
:1011D0004081413021F4843039F58FEF26C0423010
:1011E00018F1811121C042509E012F5F3F4FB30182
:1011F000C4017ADA811119C0F8018081680E711C6E
:10120000F30132979081898198130EC031969081B5
:101210008A81981309C004C084E007C082E005C039
:1012200080E003C081E001C087E00F900F90DF9164
:10123000CF911F910F91FF90EF90DF90CF90BF90D3
:10124000AF909F908F907F906F905F904F90089598
:10125000CF93DF9390E0FC01E456FE4F2491FC0114
:10126000EA5AFE4F8491882361F190E0880F991F1C
:10127000FC01E85FFE4FC591D491FC01EE5DFE4F8D
:10128000A591B491611109C09FB7F8948881209508
:1012900082238883EC912E230BC0623061F49FB7C8
:1012A000F8948881322F309583238883EC912E2BFC
:1012B0002C939FBF06C08FB7F894E8812E2B28830C
:1012C0008FBFDF91CF910895CF93DF93823028F0C5
:1012D0009091AA0398609093AA038093AE03109212
:1012E000AF0380E48093B00380E18093B10380E595
:1012F0008093B20361E080919F03AADF8091A003F5
:101300008F3F11F061E0A4DF61E08091A103A0DFD5
:10131000CBE9D3E09E012B5933408091AA0384FD91
:1013200003C084E090E002C088E090E02196281796
:10133000390724F461E08E818BDFECCF8BE39DE0F5
:101340000197F1F760E080919F032BDE60E08091D0
:10135000A10327DE8091A0038F3F11F060E021DE22
:101360008091AA0384FD1CC063E08BE993E084DBD9
:10137000CBE4D6E4CE010197F1F763E08BE993E08B
:101380007BDB2197F1F763E08BE993E075DB83E585
:1013900092E00197F1F762E08BE993E06DDB12C018
:1013A0008062D4DC8BE496E40197F1F78091AA0384
:1013B0008062CCDC83E592E00197F1F78091AA038B
:1013C0008062C4DC8091AA038062C0DC84E08093E8
:1013D000AB038CE0BBDC81E0B9DC8BE39FE10197E0
:1013E000F1F782E08093AC0386E0DF91CF91AECC41
:1013F0008F929F92AF92BF92CF92DF92EF92FF9225
:101400006B017C0105D84B015C01C114D104E104DE
:10141000F104F1F00E940802DC01CB01881999095E
:10142000AA09BB09883E9340A105B10570F321E0EC
:10143000C21AD108E108F10888EE880E83E0981EF0
:10144000A11CB11CC114D104E104F10419F7DDCFD2
:10145000FF90EF90DF90CF90BF90AF909F908F90D4
:101460000895789484B5826084BD84B5816084BD1C
:1014700085B5826085BD85B5816085BD80916E0032
:10148000816080936E001092810080918100826063
:1014900080938100809181008160809381008091A0
:1014A00080008160809380008091B100846080938F
:1014B000B1008091B00081608093B0008091910074
:1014C000826080939100809191008160809391006F
:1014D000809190008160809390008091A100826053
:1014E0008093A1008091A10081608093A1008091F0
:1014F000A00081608093A000809121018260809390
:10150000210180912101816080932101809120013E
:1015100081608093200180917A00846080937A00BA
:1015200080917A00826080937A0080917A00816055
:1015300080937A0080917A00806880937A0010927C
:10154000C10082E0C1DECFB7F8948091840281119E
:1015500023C0EBE8F1E08491E1EDF1E09491E82F14
:10156000F0E0EE0FFF1FE85FFE4FA591B491EC9104
:10157000E92319F461E085E314DD61E085E368DEC9
:101580008CB580618CBD8CB580648CBD61E084E3DA
:101590005FDE61E083E35CDE809184028F5F809395
:1015A0008402CFBF61E08091C10352DE61E080918F
:1015B000C103F7DC8091C2038F3F09F442C260E0AF
:1015C00047DE8091C203C5DC892B09F03AC261E095
:1015D0008091C2033DDE60E08091C203E2DC83E0E3
:1015E00090E00197F1F761E08091C203DADC62E3F9
:1015F00070E080E090E0FCDE0EC0C15061F062E37C
:1016000070E080E090E0F4DE62E083EB93E00E9423
:10161000E10284FDF2CF40E064E283EB93E00E94BC
:10162000FA0240E066E283EB93E00E94FA0246E2AF
:1016300068E483EB93E00E94FA0240E864E583EB00
:1016400093E00E94FA0249EA66E583EB93E00E9488
:10165000FA0243E068E583EB93E00E94FA0248EE69
:101660006AE583EB93E00E94FA0240E46AE283EBCE
:1016700093E00E94FA024DE362E283EB93E00E9462
:10168000FA0268E283EB93E00E94E102982F9370E4
:10169000933039F0482F436068E283EB93E00E9477
:1016A000FA02412C512C3201439422242A94322CE8
:1016B0006BE3C62E6FE1D62E21E0209398038FB7FF
:1016C000F89440918B0250918C0260918D02709140
:1016D0008E028FBF8091880390918903A0918A0325
:1016E000B0918B03481B590B6A0B7B0B80919403C1
:1016F00090919503A0E0B0E084179507A607B7077F
:1017000008F0DEC0C0E080919203C81710F0912C61
:101710003CC0E0918E03F0918F03EC0FF11D62E06D
:10172000808196DDCF5FEFCFC82DD0E0E0918E03B2
:10173000F0918F03EC0FFD1F80810BDC2496CC0F02
:10174000DD1FC45DDC4F892B09F047C0888199817A
:101750008A299B2999838883839480919203881690
:1017600018F3E0919003F0919103E00FF11F61E015
:10177000808117DC8091900390919103FC01E00F30
:10178000F11F60E0808164DD93948091930398164B
:1017900048F5092D10E0E0919003F0919103E00FDE
:1017A000F11F61E0808154DDE0919003F09191039D
:1017B000E00FF11F60E08081F4DBD301C201092C4E
:1017C00004C0880F991FAA1FBB1F0A94D2F75C019F
:1017D0007C01E094F094812CC0CF888199818E2186
:1017E0009F21B8CFCCE2D3E0FE01878D90A1892B59
:1017F00021F4148E368E258E11A2369633E0E8360B
:10180000F30799F710E080919203181770F500E044
:10181000E12EF12CC701880F991FFC01EC5CFC4FF5
:101820007F01209193030217F0F4F7014081518169
:10183000002E02C0569547950A94E2F7642F617016
:10184000129F90011124200F311DECE2F3E080E0A3
:10185000A58DB68D2A173B0709F419C18F5F3696FF
:101860008A30B1F7F6C01F5FCECF80E099A1911109
:1018700081E0269623E0C836D207C1F79FB7F894D7
:1018800040918B0250918C0260918D0270918E027A
:101890009FBF409388035093890360938A0370939A
:1018A0008B03882369F080914D03882349F0809150
:1018B0004B0390914C03019719F41091480303C016
:1018C0001092980310E083EB93E00E9412038823A8
:1018D00009F497C083EB93E00E947101882309F417
:1018E00075C0E1E08091AE038111E0E0E195F0E0A8
:1018F000E556FC4F8489806829DA6EE472E08FE84F
:1019000092E00E94A20100E08091B503081780F5E3
:10191000C02FD0E0CD54DC4F8B81803118F06CE4C7
:1019200072E002C06AE472E08FE892E00E94A201D5
:101930004B8150E060E070E020E18FE892E00E948F
:10194000B7018B81803118F06CE472E002C06AE468
:1019500072E08BE993E00E94A2014B8150E060E0CD
:1019600070E020E18BE993E00E94B7010F5FCCCFDC
:1019700065E572E08FE892E00E94A20167E572E0FF
:101980008FE892E00E94A2018091B603873DB1F4F6
:101990008091B703893591F48091B803893371F44C
:1019A0008091B9038E3451F46AE572E08FE892E0D9
:1019B0000E94A20131E03093850208C064E672E023
:1019C0008FE892E00E94A20110928502E091AE039E
:1019D000E23010F4E15001C0E1E0F0E0E556FC4FE8
:1019E00084898F5F8068B2D980918502882319F03D
:1019F00061E772E002C06AE772E08BE993E00E945F
:101A0000A2011123E1F0E1E08091AE038111E0E059
:101A1000E195F0E0E556FC4F8489845F806896D9B3
:101A200041E0612F8BE993E052D860ED77E080E0F0
:101A300090E0DEDC81E08AD9C6010197F1F7F9D8A0
:101A40003BCE4FE062E083EB93E00E94FA02C3E0FA
:101A5000D6CD40FF1DC0ECE2F3E080E090E0448D85
:101A6000411118C0E0918C03F0918D03E20FF31F38
:101A70007081F6E0F89FA001F99F500D1124FA0142
:101A8000E45DFC4F748F368F258F10A2178E63D9BB
:101A90000F5FC7CE019636968A30910501F7F8CFD1
:101AA000109292021092910288EE93E0A0E0B0E0D2
:101AB0008093930290939402A0939502B093960220
:101AC0008CE192E09093900280938F0285EC90E0FD
:101AD00090939C0280939B0284EC90E090939E02F2
:101AE00080939D0280EC90E09093A00280939F02EF
:101AF00081EC90E09093A2028093A10282EC90E0AE
:101B00009093A4028093A30286EC90E09093A602A7
:101B10008093A5021092A8021092A9021092AA0224
:101B20001092AB0284E492E09093B4038093B303E9
:101B300089E08093C10388E08093C20310929E03E2
:101B400010929D0388E392E090939C0380939B0303
:101B500082E080939F038FEF8093A00383E08093C4
:101B6000A10384E08093A20385E08093A30386E031
:101B70008093A40387E08093A5031092A60310929C
:101B8000A7031092A8031092A9031092AA0381E060
:101B90009BDB10922E0310923203109231031092AD
:101BA00033038EE292E090932D0380932C03ECE2BA
:101BB000F3E0148E10A2178E11A2369683E0E83659
:101BC000F807B9F784E092E090938F0380938E0337
:101BD00080E092E0909391038093900384E080935F
:101BE00092038093930388E092E090938D03809317
:101BF0008C038AE090E0909395038093940384EFA4
:101C000091E0909397038093960310929A03109219
:101C10009903109288031092890310928A031092FC
:101C20008B03109298030895A1E21A2EAA1BBB1BE6
:101C3000FD010DC0AA1FBB1FEE1FFF1FA217B30798
:101C4000E407F50720F0A21BB30BE40BF50B661FAE
:101C5000771F881F991F1A9469F760957095809572
:101C600090959B01AC01BD01CF010895EE0FFF1FC0
:101C7000881F8BBF0790F691E02D199481E090E0CA
:081C8000F89400C0F894FFCFB6
:101C88002523211F2D2B2927313233413435364264
:101C9800373839432A302344000000003C07470105
:101CA800DC0588070D06EB05FF050000000085012F
:101CB80088019E0100000000B405470182018101EE
:101CC80000000000B70312037101300020005549DD
:101CD800443A207B007D000D0A00506F70726177D6
:101CE8006E790A004E6965706F707261776E790A55
:101CF80000504F505241574E5900424C45444E599E
:021D08000000D9
:00000001FF
