:100000000EC015C014C013C012C011C010C00FC064
:100010000EC00DC00CC00BC00AC009C008C011241E
:100020001FBECFE5D1E0DEBFCDBF13D055C0E8CFB6
:10003000282F86B3822311F090E009C088EA91E668
:100040000197F1F786B390E0822309F491E0892FBC
:1000500008951F93CF93DF9387B3876087BB88B3DF
:10006000896188BB11E0C9E1D0E088E0E1DF882345
:1000700051F088B3812788BB80E197E2FE01319778
:10008000F1F70197D9F780E1D3DF882371F3C19AA3
:1000900021E030E00AC0FE013197F1F70197D9F76E
:1000A0002F5F3F4F2932310519F080E197E2F3CFFE
:1000B000C29A21E030E00AC0FE013197F1F70197C2
:1000C000D9F72F5F3F4F2131310519F080E197E2D9
:0C00D000F3CFC298C198C9CFF894FFCFBD
:00000001FF
