:100000000EC015C014C013C012C011C010C00FC064
:100010000EC00DC00CC00BC00AC009C008C011241E
:100020001FBECFE5D1E0DEBFCDBF13D032C0E8CFD9
:10003000282F86B3822311F090E009C084ED90E36D
:100040000197F1F786B390E0822309F491E0892FBC
:100050000895CF93DF9387B3866087BBBC98C49A1B
:10006000C9E1D0E080E1E4DF8823E1F3C19A21E037
:1000700030E00AC0FE013197F1F70197D9F72F5F01
:100080003F4F2932310519F080E197E2F3CFC19853
:06009000E9CFF894FFCF58
:00000001FF
