:1000000012C019C018C017C016C015C014C013C044
:1000100012C011C010C00FC00EC00DC00CC00BC06C
:100020000AC009C008C011241FBECFE5D4E0DEBF5E
:10003000CDBF02D045C0E4CF3E9A87B1836087B977
:1000400086B1866886B987B3806C87BB81B3806EC2
:1000500081BB28EE33E048EC50E005C0CA010197AF
:10006000F1F72150304021153105C1F7369A369904
:10007000FECF88B38F7388BB82B38F7182BB84B18C
:1000800095B1893C910508F0C69A84B195B1815922
:10009000914008F0C79A84B195B18955924008F013
:1000A000959A84B195B18152934008F0969A84B1A3
:1000B00095B1895E934008F0979A28EE33E0CECF51
:0400C000F894FFCFE2
:00000001FF
