:1000000012C02CC02BC02AC029C028C027C026C0BF
:1000100025C025C023C022C021C020C01FC01EC0D3
:100020001DC01CC01BC011241FBECFE5D4E0DEBF25
:10003000CDBF10E0A0E6B0E0E2E6F9E002C0059036
:100040000D92A236B107D9F710E0A2E6B0E001C0E8
:100050001D92AB36B107E1F7C8D281C4D1CF1F9250
:100060000F920FB60F9211242F933F938F939F936C
:1000700084E082BF8091620090916300019690932A
:100080006300809362002091620030916300809150
:10009000690090916A0028173907B9F480916400CB
:1000A000813099F480916000833021F0809160006C
:1000B000853059F4AD98109263001092620010924E
:1000C000640080916000809368009F918F913F91C0
:1000D0002F910F900FBE0F901F901895833091F0C5
:1000E000843028F4813059F08230A9F405C084307E
:1000F00061F0853081F40CC024EF31E00EC020E9BE
:1001000031E00BC028E532E008C022E533E005C04D
:1001100026EB33E002C020ED37E0C901089588B333
:100120008E7788BB82B38F7182BB0895843039F19A
:10013000853040F48230A1F08330C8F4813009F07A
:1001400040C007C0863059F1863008F18730C9F5C4
:100150002FC088B38E7788BB82B38F7182BB26C0D5
:1001600088B38E7788BB82B38F7182BB28C088B377
:100170008E7788BB82B38F7182BB969A089588B3BD
:100180008E7788BB82B38F7182BB959A089588B3AE
:100190008E7788BB82B38F7182BBC79A089588B36C
:1001A0008E7788BB82B38F7182BBC79AC09A08953D
:1001B00088B38E7788BB82B38F7182BBC79A979AB8
:1001C000089588B38E7788BB82B38F7182BB089500
:1001D00008958430A9F0853028F4823041F08330CE
:1001E00049F40BC0853079F0863021F40FC02CE241
:1001F00031E00EC02CE330E00BC028E532E008C04F
:1002000020EB34E005C028E037E002C020E13EE00A
:10021000C9010895482F86B3842311F090E00EC0E1
:1002200084EF91E028EC30E0F9013197F1F7019784
:10023000D9F786B390E0842309F491E0892F0895DB
:10024000BF92CF92DF92EF92FF920F931F93CF93C3
:10025000DF93EC01E62E042FB22E949AFF2480E067
:1002600098ECC92ED12C34C0888160DF80ED97E0F6
:10027000F6013197F1F70197D9F780E1CBDF8823B9
:1002800031F088818F5F8883081708F4E88288E05E
:10029000C1DF882331F08881815088838E1508F46E
:1002A000088380E1B7DF882321F088E0B3DF811184
:1002B000B88284E0AFDF182F82E0ACDF882329F416
:1002C000812F112329F081E003C0FF24F39402C0A1
:1002D000882351F294988F2DDF91CF911F910F9128
:1002E000FF90EF90DF90CF90BF9008952F923F92B4
:1002F0004F925F926F927F928F929F92AF92BF9236
:10030000CF92DF92FF920F931F93DF93CF930F92C1
:10031000CDB7DEB72C013B014A015901C69AC09AFC
:1003200080ED97E028EC30E0F9013197F1F7019783
:10033000D9F711E028EC222E312C6E010894C11C53
:10034000D11C88C0F1013197F1F70197D9F782E00C
:1003500061DFF82E882311F0FF24F3940F2D812FF5
:10036000E5DE80E157DF882341F01F5F812FDEDE6D
:10037000163018F081E0DADE11E088E04BDF8823E8
:1003800041F01150812FD2DE112319F485E0CEDE29
:1003900015E084E03FDF882309F451C0133031F1C8
:1003A000143030F4113049F0123009F043C012C05B
:1003B000143041F11530F1F531C08091600089832E
:1003C000C60161E045E025E03BDF082F898180938D
:1003D000600030C0F20180818983C60161E047E09E
:1003E00023E02EDF082F8981F20123C0F3018081F1
:1003F0008983C60161E045E024E022DF082F89817E
:10040000F30117C0F40180818983C60161E045E0F2
:1004100026E016DF082F8981F4010BC0F5018081E9
:100420008983C60161E042E022E00ADF082F89816A
:10043000F5018083002329F4812F78DE0BC0FF2093
:1004400049F0C69888B38E7788BB82B38F7182BB20
:10045000002319F488EE93E075CF80E00F90CF91E0
:10046000DF911F910F91FF90DF90CF90BF90AF90E1
:100470009F908F907F906F905F904F903F902F90C4
:100480000895482F83B3842311F090E00EC084EFC9
:1004900091E028EC30E0F9013197F1F70197D9F7B5
:1004A00083B390E0842309F491E0892F0895282FE5
:1004B00083B3822311F090E009C081E090E00197BE
:1004C000F1F783B390E0822309F491E0892F089536
:1004D0008F929F92AF92BF92CF92DF92EF92FF9254
:1004E0001F93CF93DF93282F162F809165008130C3
:1004F00011F4C09A01C0C098423009F049C084EF9D
:1005000091E048EC50E0FA013197F1F70197D9F703
:1005100082B390E1892782BB30E084E690E0289F97
:100520006001299FD00C389FD00C112488EE93E0F5
:10053000289F7001299FF00C389FF00C1124C1E016
:10054000D0E040E2842E4EE4942E38ECA32EB12C61
:100550001AC0C4010197F1F780E1A9DF882391F463
:10056000112321F0113019F4AD9A01C0AD98109308
:100570006400949880ED97E0F5013197F1F70197C9
:10058000D9F7E7012196CC16DD061CF7949812C026
:10059000112321F0113019F4AD9A01C0AD9880ED0E
:1005A00097E028EC30E0F9013197F1F70197D9F79E
:1005B000109364001092630010926200C09888EB60
:1005C0009BE028EC30E0F9013197F1F70197D9F77A
:1005D00080E0DF91CF911F91FF90EF90DF90CF905F
:1005E000BF90AF909F908F9008952F923F924F921F
:1005F0005F926F927F928F929F92AF92BF92DF92A3
:10060000EF92FF920F931F93DF93CF9300D000D010
:10061000CDB7DEB783E089838A838B8382E08C83C6
:1006200083E05CDD8C0183E0D4DD9C01B5E0220F2A
:10063000331FBA95E1F7281B390B30936A002093DA
:10064000690080916000809368003E9A87B1836062
:1006500087B986B1866886B989B7816089BF83B753
:10066000856083BF84E082BF7894A59A87B3816C4C
:1006700087BB81B3806F81BB88B38E6188BB81E00B
:10068000809365008093660080936700EE24FF24CA
:10069000A2E06A2E712C6C0E7D1EF3E04F2E512CC1
:1006A0004C0E5D1EE4E02E2E312C2C0E3D1E4E0114
:1006B0000894811C911C78ECA72EB12CDD24D394D6
:1006C00082E0A8DD8823C1F1C401B301A201910138
:1006D0000DDE88B38E7788BB82B38F7182BB809129
:1006E0006000809368001B818A8173DD9C0165E056
:1006F000220F331F6A95E1F7281B390B30936A00EC
:1007000020936900809160008093680010926300DC
:100710001092620080916400882321F4809160002F
:100720008093680080ED97E0F5013197F1F701972C
:10073000D9F7812FD3DC8C0180E1B9DE882391F5D4
:1007400080916500813011F4C09A01C0C0988091F9
:1007500068008130D9F4809160008130B9F08091D7
:100760006000833099F080916400882339F08130F3
:1007700069F4898160E04C81ABDE08C0898160E06A
:100780004C81A6DE809160008093680080916400B7
:10079000813041F480916000833021F0898160E0F4
:1007A0004C8196DE2B81263019F0369A3699FECF91
:1007B00080916400882309F05FC0809160008430DC
:1007C000F8F0809168008130D9F484B195B1801738
:1007D0009107B0F4E114F10441F410926300109217
:1007E000620051E0E52EF12C0DC0809162009091E5
:1007F0006300895A984430F08091600080936800CB
:10080000EE24FF24263029F084B195B1081719078A
:1008100098F580E14CDE882331F4898161E04C81D8
:1008200057DED092680084E02CDE882329F5809181
:100830006800823021F080916800843029F4AD9AFC
:10084000D0926400D092680080916000833039F4C7
:10085000AD9A1092630010926200D0926400809171
:100860006800853049F4AD9AD0926400109263001C
:1008700010926200D092680084E003DE882361F465
:1008800080916000853041F480916400813021F4D2
:10089000109263001092620080916500813031F403
:1008A00080E105DE882311F4C09A01C0C0988091D0
:1008B0006700813031F484E0E4DD882311F4C79AC5
:1008C00001C0C79880916600813039F484B195B138
:1008D0000817190710F4969A01C0969884E09ADCDC
:1008E000882389F080916500813021F410926500A1
:1008F000C09802C0D092650080ED97E0F501319775
:10090000F1F70197D9F788E085DC882389F0809199
:100910006600813021F410926600969802C0D09251
:10092000660080ED97E0F5013197F1F70197D9F76F
:1009300080E170DC882309F4C3CE809167008130A8
:1009400021F410926700C79802C0D092670080ED32
:1009500097E0F5013197F1F70197D9F7B1CEF89407
:02096000FFCFC7
:0209620005008E
:00000001FF
