:1000000012C02CC02BC02AC029C028C027C026C0BF
:1000100025C025C023C022C021C020C01FC01EC0D3
:100020001DC01CC01BC011241FBECFE5D4E0DEBF25
:10003000CDBF10E0A0E6B0E0E2E4F9E002C0059038
:100040000D92A236B107D9F710E0A2E6B0E001C0E8
:100050001D92AB36B107E1F7C5D271C4D1CF1F9263
:100060000F920FB60F9211242F933F938F939F936C
:1000700084E082BF8091620090916300019690932A
:100080006300809362002091620030916300809150
:10009000690090916A0028173907B9F480916400CB
:1000A000813099F480916000833021F0809160006C
:1000B000853059F4AD98109263001092620010924E
:1000C000640080916000809368009F918F913F91C0
:1000D0002F910F900FBE0F901F901895833091F0C5
:1000E000843028F4813059F08230A9F405C084307E
:1000F00061F0853081F40CC024EF31E00EC020E9BE
:1001000031E00BC028E532E008C022E533E005C04D
:1001100026EB33E002C020ED37E0C901089588B333
:100120008E7788BB82B38F7182BB0895843039F19A
:10013000853040F48230A1F08330C8F4813009F07A
:1001400040C007C0863059F1863008F18730C9F5C4
:100150002FC088B38E7788BB82B38F7182BB26C0D5
:1001600088B38E7788BB82B38F7182BB28C088B377
:100170008E7788BB82B38F7182BB969A089588B3BD
:100180008E7788BB82B38F7182BB959A089588B3AE
:100190008E7788BB82B38F7182BBC79A089588B36C
:1001A0008E7788BB82B38F7182BBC79AC09A08953D
:1001B00088B38E7788BB82B38F7182BBC79A979AB8
:1001C000089588B38E7788BB82B38F7182BB089500
:1001D00008958430A9F0853028F4823041F08330CE
:1001E00049F40BC0853079F0863021F40FC02CE241
:1001F00031E00EC02CE330E00BC028E532E008C04F
:1002000020EB34E005C028E037E002C020E13EE00A
:10021000C9010895482F86B3842311F090E00EC0E1
:1002200084EF91E028EC30E0F9013197F1F7019784
:10023000D9F786B390E0842309F491E0892F0895DB
:10024000BF92CF92DF92EF92FF920F931F93CF93C3
:10025000DF93EC01E62EF42EB22E949A80E000E0BB
:1002600098ECC92ED12C33C0888160DF80ED97E0F7
:10027000F6013197F1F70197D9F780E1CBDF8823B9
:1002800031F088818F5F8883F81608F4E88288E06F
:10029000C1DF882331F08881815088838E1508F46E
:1002A000F88280E1B7DF882321F088E0B3DF811195
:1002B000B88284E0AFDF182F82E0ACDF882329F416
:1002C000812F112321F081E002C001E002C08823C8
:1002D00059F29498802FDF91CF911F910F91FF9049
:1002E000EF90DF90CF90BF9008952F923F924F9262
:1002F0005F926F927F928F929F92AF92BF92CF92B6
:10030000DF92FF920F931F93DF93CF930F92CDB79E
:10031000DEB71C012B013A0149015801C69AC09A67
:1003200080ED97E028EC30E0F9013197F1F7019783
:10033000D9F711E06E010894C11CD11C98C0E8ECFB
:10034000F0E03197F1F70197D1F782E063DFF82E03
:10035000882311F0FF24F3940F2D812FE7DE80E135
:1003600059DF882341F01F5F812FE0DE173018F03E
:1003700081E0DCDE11E088E04DDF882341F01150A0
:10038000812FD4DE112319F486E0D0DE16E084E05C
:1003900041DF882309F460C0133049F1143030F490
:1003A000113061F0123009F052C015C01530B9F1AA
:1003B000153048F1163009F04AC03DC08091600008
:1003C0008983C60161E045E025E03ADF082F898195
:1003D000809360003CC0F10180818983C60161E0A7
:1003E00047E023E02DDF082F8981F1012FC0F201C2
:1003F00080818983C60161E045E024E021DF082F88
:100400008981F20123C0F30180818983C60161E003
:1004100045E026E015DF082F8981F30117C0F501BB
:1004200080818983C60161E045E023E009DF082F70
:100430008981F5010BC0F40180818983C60161E0E7
:1004400042E022E0FDDE082F8981F4018083002351
:1004500029F4812F6BDE0BC0FF2049F0C69888B3CA
:100460008E7788BB82B38F7182BB002319F488EE2C
:1004700093E065CF80E00F90CF91DF911F910F91B6
:10048000FF90DF90CF90BF90AF909F908F907F9024
:100490006F905F904F903F902F900895482F83B3B7
:1004A000842311F090E00EC084EF91E028EC30E05E
:1004B000F9013197F1F70197D9F783B390E08423DD
:1004C00009F491E0892F0895482F83B3842369F0BC
:1004D00084EF91E028EC30E0F9013197F1F70197D2
:1004E000D9F783B3842309F081E008958F929F9216
:1004F000AF92BF92CF92DF92EF92FF921F93CF9372
:10050000DF93282F162F423009F049C080ED97E085
:1005100048EC50E0FA013197F1F70197D9F782B32F
:1005200090E1892782BB30E084E690E0289F60015B
:10053000299FD00C389FD00C112488EE93E0289F7F
:100540007001299FF00C389FF00C1124C1E0D0E01D
:1005500030E2832E3EE4932E28ECA22EB12C1AC05A
:10056000C4010197F1F780E1AFDF882391F01123F7
:1005700021F0113019F4AD9A01C0AD9810936400C8
:10058000949880ED97E0F5013197F1F70197D9F74D
:10059000E7012196CC16DD061CF7949812C066235D
:1005A00021F0613019F4AD9A01C0AD9880ED97E06B
:1005B00028EC30E0F9013197F1F70197D9F7109362
:1005C0006400109263001092620080E0DF91CF918E
:1005D0001F91FF90EF90DF90CF90BF90AF909F90D2
:1005E0008F9008952F923F924F925F926F927F92D9
:1005F0008F929F92AF92BF92DF92EF92FF920F93F2
:100600001F93DF93CF9300D000D00F92CDB7DEB70A
:1006100093E099839A839B8382E08C839D8383E01C
:100620005DDD8C0183E0D5DD9C01A5E0220F331F49
:10063000AA95E1F7281B390B30936A0020936900D3
:1006400080916000809368003E9A87B1836087B98B
:1006500086B1866886B989B7816089BF83B78560AE
:1006600083BF84E082BF7894A59A87B3816C87BBEF
:1006700081B3806F81BB88B38E6188BB10926500A7
:1006800081E08093660080936700EE24FF24F3E00E
:100690006F2E712C6C0E7D1EE4E04E2E512C4C0EF4
:1006A0005D1E75E0272E312C2C0E3D1E4E01089448
:1006B000811C911C68ECA62EB12CDD24D39482E021
:1006C000A9DD8823D9F1C401BE016E5F7F4FA3016C
:1006D000920181010ADE88B38E7788BB82B38F7165
:1006E00082BB80916000809368001B818A8171DDEC
:1006F0009C0155E0220F331F5A95E1F7281B390B57
:1007000030936A00209369008091600080936800B4
:10071000109263001092620080916400882321F49B
:10072000809160008093680080ED97E0F50131973B
:10073000F1F70197D9F7812FD1DC8C0180E1C4DE7C
:10074000882359F1809168008130D9F4809160004C
:100750008130B9F080916000833099F0809164001D
:10076000882339F0813069F4898160E04C81BEDEF4
:1007700008C0898160E04C81B9DE8091600080937F
:10078000680080916400813041F480916000833082
:1007900021F0898160E04C81A9DE2B81263019F09F
:1007A000369A3699FECF80916400882309F05FC0A5
:1007B000809160008430F8F0809168008130D9F435
:1007C00084B195B180179107B0F4E114F10441F4BC
:1007D000109263001092620041E0E42EF12C0DC0F3
:1007E0008091620090916300895A984430F0809122
:1007F000600080936800EE24FF24263029F084B145
:1008000095B10817190798F580E15EDE882331F06D
:10081000898161E04C816ADED092680084E03EDE2E
:10082000882329F580916800823021F0809168004A
:10083000843029F4AD9AD0926400D09268008091FF
:100840006000833039F4AD9A109263001092620018
:10085000D092640080916800853049F4AD9AD092BE
:1008600064001092630010926200D092680084E0ED
:1008700015DE882361F480916000853041F4809119
:100880006400813021F41092630010926200809124
:100890006700813031F484E001DE882311F4C79AC7
:1008A00001C0C79880916600813039F484B195B158
:1008B0000817190710F4969A01C0969884E0AADCEC
:1008C000882389F080916500813021F410926500C1
:1008D000C09802C0D092650080ED97E0F501319795
:1008E000F1F70197D9F788E095DC882389F08091AA
:1008F0006600813021F410926600969802C0D09272
:10090000660080ED97E0F5013197F1F70197D9F78F
:1009100080E180DC882309F4D2CE809167008130A9
:1009200021F410926700C79802C0D092670080ED52
:1009300097E0F5013197F1F70197D9F7C0CEF89418
:02094000FFCFE7
:020942000500AE
:00000001FF
