:100000000EC015C014C013C012C011C010C00FC064
:100010000EC00DC00CC00BC00AC009C008C011241E
:100020001FBECFE5D1E0DEBFCDBF13D04EC0E8CFBD
:10003000282F86B3822311F090E009C088EA91E668
:100040000197F1F786B390E0822309F491E0892FBC
:100050000895FF920F931F93CF93DF9387B3876029
:1000600087BB88B3886388BBFF24F394C9E1D0E0E1
:1000700002E014E080E1DCDF882351F088B38F25B3
:1000800088BB80E197E2FE013197F1F70197D9F73C
:1000900088E0CEDF882351F088B3802788BB80E1D9
:1000A00097E2FE013197F1F70197D9F780E2C0DFBF
:1000B000882301F388B3812788BB80E197E2FE01A2
:0E00C0003197F1F70197D9F7D5CFF894FFCF1C
:00000001FF
