:100000000EC015C014C013C012C011C010C00FC064
:100010000EC00DC00CC00BC00AC009C008C011241E
:100020001FBECFE5D1E0DEBFCDBF13D02DC0E8CFDE
:10003000282F86B3822311F090E009C088EA91E668
:100040000197F1F786B390E0822309F491E0892FBC
:1000500008951F93CF93DF9387B3876087BB88B3DF
:10006000896188BB11E0C9E1D0E088E0E1DF882345
:10007000E1F388B3812788BB80E197E2FE013197E5
:0C008000F1F70197D9F7F1CFF894FFCF0A
:00000001FF
