:100000000EC015C014C013C012C011C010C00FC064
:100010000EC00DC00CC00BC00AC009C008C011241E
:100020001FBECFE5D1E0DEBFCDBF18D080C0E8CF86
:10003000482F86B3842311F090E00EC084EF91E046
:1000400028EC30E0F9013197F1F70197D9F786B341
:1000500090E0842309F491E0892F0895BF92CF9214
:10006000DF92EF92FF920F931F93CF93DF93BB9A90
:10007000BC9AC29AC19A11E028ECE22EF12C98E0C9
:10008000B92E80E2C82E8EE4D82E00E182E0D0DFC7
:100090008823D9F01F5F80ED97E0F7013197F1F7E2
:1000A0000197D9F7133088F0C39A80E197E2F701FE
:1000B0003197F1F70197D9F7C39880ED97E0F701F1
:1000C0003197F1F70197D9F711E084E0B1DF882388
:1000D00021F188B38B2588BB80ED97E0F70131973C
:1000E000F1F70197D9F7C1E0D0E0C6010197F1F728
:1000F00084E09EDF882361F088B3802788BB80ED91
:1001000097E0F7013197F1F70197D9F7C8EBDBE0FA
:100110002196C536D1054CF3C398123009F0B6CFFD
:1001200081E086DF882309F0B1CFC49AAFCFF8947D
:02013000FFCFFF
:00000001FF
