:1000000012C019C018C017C016C015C014C013C044
:1000100012C011C010C00FC00EC00DC00CC00BC06C
:100020000AC009C008C011241FBECFE5D4E0DEBF5E
:10003000CDBF18D078C0E4CF482F86B3842311F009
:1000400090E00EC088EE93E028EC30E0F9013197A3
:10005000F1F70197D9F786B390E0842309F491E092
:10006000892F0895EF92FF920F931F93CF93DF9301
:1000700081B38F6781BB88B38F6388BB98E0E92E1B
:1000800080E1F82E00E210E4C8ECD0E081E0D4DF9B
:10009000882321F082B391E0892782BB84E0CCDF02
:1000A000882319F082B38E2582BB88E0C5DF8823C0
:1000B00019F082B38F2582BB80E1BEDF882319F05F
:1000C00082B3802782BB80E2B7DF882319F082B336
:1000D000812782BB82E0B0DF8823C1F2919A21E0C0
:1000E00030E00AC0FE013197F1F70197D9F72F5F91
:1000F0003F4F2630310519F080E197E2F3CF929A15
:1001000021E030E00AC0FE013197F1F70197D9F7FD
:100110002F5F3F4F2330310519F080E197E2F3CF95
:0A01200092989198B3CFF894FFCFA6
:00000001FF
