:1000000012C019C018C017C016C015C014C013C044
:1000100012C011C010C00FC00EC00DC00CC00BC06C
:100020000AC009C008C011241FBECFE5D4E0DEBF5E
:10003000CDBF02D02FC0E4CFBB9ABC9AC29AC39A5C
:1000400080E197E228EC30E0F9013197F1F7019770
:10005000D9F7C49A80E197E228EC30E0F9013197B2
:10006000F1F70197D9F7C39880E197E228EC30E0E7
:10007000F9013197F1F70197D9F7C49A80E197E236
:1000800028EC30E0F9013197F1F70197D9F780E0DA
:0800900090E00895F894FFCF01
:00000001FF
