:1000000012C021C020C01FC01EC01DC01CC01BC00C
:100010001AC028C018C017C016C015C014C013C01D
:1000200012C011C010C011241FBECFE5D4E0DEBF46
:10003000CDBF10E0A0E6B0E001C01D92A136B1072F
:10004000E1F702D031C0DCCF87B3806C87BBC69AA2
:1000500089B7816089BF83B7856083BF86E082BF2F
:100060007894FFCF1F920F920FB60F9211248F93A7
:100070009F9386E082BF809160008F5F80936000D5
:1000800080916000843048F088B390E4892788BB71
:1000900088B3805888BB109260009F918F910F9019
:0C00A0000FBE0F901F901895F894FFCF32
:00000001FF
