:1000000072C000009FC000009DC000009BC00000A7
:1000100099C0000097C0000095C0000093C0000088
:1000200091C000008FC000008DC000008BC0000098
:1000300089C0000087C0000085C0000083C00000A8
:1000400081C000007FC000007DC000007BC00000B8
:1000500079C0000077C0000075C0000016C5000020
:1000600071C00000DCC40000B1C400006BC000001F
:1000700069C0000067C0000065C0000063C00000E8
:1000800061C000005FC000005DC000005BC00000F8
:1000900059C0000057C0000055C0000053C0000008
:1000A00051C000004FC000004DC000004BC0000018
:1000B00049C0000047C0000045C0000043C0000028
:1000C00041C000003FC000003DC0000049C4000026
:1000D0001EC4000037C0000035C0000033C000005F
:1000E00031C000008F0511241FBECFEFD1E2DEBF6B
:1000F000CDBF00E00CBF26E0AEE7B3E001C01D922B
:10010000AF35B207E1F713E0A0E0B2E0E8E4F9E1CF
:1001100000E00BBF02C007900D92AE37B107D9F7D0
:1001200010E0C3E7D0E000E005C021970109802F6F
:10013000FE011ED7C237D10780E00807B1F742D5CC
:100140000C94A20C5DCFFC01A089B18982E08C9354
:10015000A485B5851C92A685B7858FEC8C93108EEF
:10016000A489B58986E08C93A289B3898C9180613A
:100170008C93A289B3898C9188608C93A289B3896E
:100180008C9180688C930288F389E02D80818F7D2B
:10019000808308950895AF92BF92CF92DF92EF923D
:1001A000FF920F931F93CF93DF936C017B018B0121
:1001B000040F151FEB015E01AE18BF08C017D10771
:1001C00059F06991D601ED91FC910190F081E02DFB
:1001D000C6011995892B79F7C501DF91CF911F9140
:1001E0000F91FF90EF90DF90CF90BF90AF90089568
:1001F000FC01538D448D252F30E0842F90E0821B2D
:10020000930B541710F0CF96089501970895FC01B1
:10021000918D828D981761F0A28DAE0FBF2FB11D09
:100220005D968C91928D9F5F9F73928F90E0089561
:100230008FEF9FEF08952FB7F89480911D0590914F
:100240001E05A0911F05B09120052FBF80932905A1
:1002500090932A05A0932B05B0932C0581E295E09D
:10026000D6DF97FF26C02FB7F89480911D05909197
:100270001E05A0911F05B09120052FBF40912905B3
:1002800050912A0560912B0570912C05841B950BCC
:10029000A60BB70B409125055091260560912705C7
:1002A0007091280584179507A607B707B8F28FEF56
:1002B0009FEF08958F929F92AF92BF92CF92DF925D
:1002C000EF92FF920F931F93CF93DF93DC0112966F
:1002D0002D913C91EC0101E010E0232B71F590E0B1
:1002E00080E0DF91CF911F910F91FF90EF90DF9011
:1002F000CF90BF90AF909F908F900895411551057A
:1003000009F444C06F01D901A41BB50B4D018E0E39
:100310009F1E70E060E0D601AD906D01D401BD90EC
:100320004D01AB1005C06F5F7F4F6417750798F3E1
:1003300064177507B1F4FD82EC827DDF97FD33C051
:10034000E881F9812C813D81DF01A20FB31F4C911F
:10035000042E000C550B84179507D9F02115310593
:1003600061F3EC80FD80A701415051095D834C830E
:10037000DF01A40FB51F6C91062E000C770B8617BA
:10038000970709F4BBCF452B61F7D7CF1D830C83AB
:10039000D4CF2F5F3F4F3D832C838A819B812817C9
:1003A000390759F69CCF8FEF9FEF9BCFFC01918DC2
:1003B000828D981731F0828DE80FF11D858D90E0C8
:1003C00008958FEF9FEF0895FC01918D228D892F65
:1003D00090E0805C9F4F821B91098F73992708954D
:1003E00081E295E0F1DF21E0892B09F420E0822F02
:1003F00008958EEB95E0E8DF21E0892B09F420E0F9
:10040000822F0895FC01A48DA80FB92FB11DA35A06
:10041000BF4F2C91848D90E001968F739927848F24
:10042000A689B7892C93A089B1898C918370806447
:100430008C93938D848D981306C00288F389E02DE8
:1004400080818F7D80830895EF92FF920F931F9399
:10045000CF93DF93EC0181E0888F9B8D8C8D981377
:100460001AC0E889F989808185FF15C09FB7F89483
:10047000EE89FF896083E889F989808183708064CF
:1004800080839FBF81E090E0DF91CF911F910F911A
:10049000FF90EF900895F62E0B8D10E00F5F1F4F29
:1004A0000F731127E02E8C8D8E110BC00FB607FC39
:1004B000FACFE889F989808185FFF5CFCE01A2DFE7
:1004C000F2CFEB8DEC0FFD2FF11DE35AFF4FF082C1
:1004D0009FB7F8940B8FEA89FB8980818062D0CF27
:1004E000CF93DF93EC01888D8823B1F0AA89BB8973
:1004F000E889F9898C9185FD03C0808186FD0CC057
:100500000FB607FCF7CF8C9185FFF2CF808185FF76
:10051000EDCFCE0177DFEACFDF91CF91089580E074
:1005200090E0892B21F065DF81110E94000080E0BE
:1005300090E0892B49F080E090E0892B29F00E941F
:10054000000081110E94000080E090E0892B21F0E2
:1005500047DF81110E94000080E090E0892B49F084
:1005600080E090E0892B29F00E94000081110C941A
:10057000000008953FB7F89480917F039091800325
:10058000A0918103B091820326B5A89B05C02F3F9F
:1005900019F00196A11DB11D3FBFBA2FA92F982FA9
:1005A0008827BC01CD01620F711D811D911D42E0A4
:1005B000660F771F881F991F4A95D1F708958F926C
:1005C0009F92AF92BF92CF92DF92EF92FF926B0118
:1005D0007C01D0DF4B015C01C114D104E104F104C2
:1005E000B1F0C8DF681979098A099B09683E734030
:1005F0008105910588F321E0C21AD108E108F108CC
:1006000088EE880E83E0981EA11CB11CE5CFFF90F8
:10061000EF90DF90CF90BF90AF909F908F90089514
:10062000FB0101900020E9F73197AF01461B570B02
:10063000B2CDCF93DF93BC018EEB95E0F1DFEC01FF
:1006400068E172E08EEB95E0EBDF8C0F9D1FDF9190
:10065000CF9108950F931F93CF93DF93EC01FB018C
:10066000448155816081718196DD8C0168E172E081
:10067000CE01D6DF800F911FDF91CF911F910F9197
:100680000895EF92FF920F931F93CF93DF9300D0C3
:1006900000D0CDB7DEB78B017A01BC0181E295E0D5
:1006A000D9DF8FB7F89440911D0550911E056091D8
:1006B0001F05709120058FBFB701FF0C880B990BA8
:1006C0007EDF81E295E080DE1816190604F5F80158
:1006D00001900020E9F73197E01BF10B1E821D828B
:1006E0001A830983FC83EB83CE010196E3DD892B1A
:1006F00041F781E026960FB6F894DEBF0FBECDBF5E
:10070000DF91CF911F910F91FF90EF90089580E0BE
:10071000F1CF0F931F93CF93DF93EC0188819981E1
:10072000009759F02A813B812617370730F081E086
:10073000DF91CF911F910F9108958B016F5F7F4FD4
:1007400044D5009759F0998388831B830A832C81B1
:100750003D81232B61F7FC011082E9CF80E0E8CFD7
:10076000FC0180819181009709F0A6C40895EF9261
:10077000FF920F931F93CF93DF93EC017B011982BC
:1007800018821B821A821D821C82FB0101900020AC
:10079000E9F731978F01061B170BB801BADF2881E3
:1007A0003981811112C02115310511F0C90184D49C
:1007B000198218821D821C821B821A82DF91CF91BE
:1007C0001F910F91FF90EF9008951D830C83B70147
:1007D000C901DF91CF911F910F91FF90EF90E3C579
:1007E000EF92FF920F931F93CF93DF93CDB7DEB7B6
:1007F0002E970FB6F894DEBF0FBECDBF7C018B01E4
:100800006AE172E0CE010796B2DFB70181E295E0BE
:1008100021DFB801110F880B990BD1DE81E295E041
:10082000D3DD181619060CF04EC06AE172E0CE0155
:1008300001969DDF00DD97FD19C08D871E860D8115
:100840001E810F5F1F4FB801CE01019662DF882322
:1008500089F329813A818D819E81BE01635F7F4F3B
:10086000820F931FA0D51E830D83E4CF8F819885BF
:100870000097C1F069817A816115710591F0498510
:100880005A852D813E814217530758F08CD58D81B2
:100890009E819C878B871E821D82CE01019660DF20
:1008A000BDCF0AD489819A8198878F838B819C815F
:1008B0009A8789878D819E819C878B871A8219826E
:1008C0001C821B82E8CFBE01695F7F4F8EEB95E0F3
:1008D000C1DE8B859C85892B41F06BE172E08F81B5
:1008E000988558D511E0892B09F010E0CE010796C4
:1008F00037DF812F2E960FB6F894DEBF0FBECDBF27
:10090000DF91CF911F910F91FF90EF9008951F926B
:100910000F920FB60F9211240BB60F922F933F93A5
:100920004F935F936F937F938F939F93AF93BF93F7
:10093000EF93FF9381E295E065DDFF91EF91BF9129
:10094000AF919F918F917F916F915F914F913F9167
:100950002F910F900BBE0F900FBE0F901F90189508
:100960001F920F920FB60F9211240BB60F922F9376
:100970008F939F93EF93FF93E0913105F0913205B0
:100980008081E0913705F091380582FD1DC090818E
:1009900080913A058F5F8F7320913B05821741F05C
:1009A000E0913A05F0E0EF5DFA4F958F80933A05BC
:1009B000FF91EF919F918F912F910F900BBE0F9010
:1009C0000FBE0F901F9018958081F2CF1F920F924B
:1009D0000FB60F9211240BB60F922F933F934F93A4
:1009E0005F936F937F938F939F93AF93BF93EF9397
:1009F000FF938EEB95E006DDFF91EF91BF91AF91F4
:100A00009F918F917F916F915F914F913F912F9126
:100A10000F900BBE0F900FBE0F901F9018951F9256
:100A20000F920FB60F9211240BB60F922F938F9344
:100A30009F93EF93FF93E091CE05F091CF058081D6
:100A4000E091D405F091D50582FD1DC09081809183
:100A5000D7058F5F8F732091D805821741F0E09101
:100A6000D705F0E0E254FA4F958F8093D705FF91B8
:100A7000EF919F918F912F910F900BBE0F900FBE12
:100A80000F901F9018958081F2CF1F920F920FB692
:100A90000F9211242F933F938F939F93AF93BF9304
:100AA00080911D0590911E05A0911F05B091200514
:100AB00030917E0323E0230F2D3758F50196A11DB9
:100AC000B11D20937E0380931D0590931E05A09376
:100AD0001F05B093200580917F0390918003A09122
:100AE0008103B09182030196A11DB11D80937F0304
:100AF00090938003A0938103B0938203BF91AF9141
:100B00009F918F913F912F910F900FBE0F901F904B
:100B1000189526E8230F0296A11DB11DD2CFE1E260
:100B2000F5E01382128248EE53E060E070E0448307
:100B30005583668377838AE092E09183808325EDF5
:100B400030E03587248724ED30E03787268720ED95
:100B500030E0318B208B21ED30E0338B228B22ED86
:100B600030E0358B248B26ED30E0378B268B118ED1
:100B7000128E138E148EEEEBF5E0138212824483F4
:100B80005583668377839183808385EC90E0958796
:100B9000848784EC90E09787868780EC90E0918B47
:100BA000808B81EC90E0938B828B82EC90E0958B34
:100BB000848B86EC90E0978B868B118E128E138E31
:100BC000148E0895CF93DF9300D000D0CDB7DEB759
:100BD000789484B5826084BD84B5816084BD85B518
:100BE000826085BD85B5816085BD80916E00816024
:100BF00080936E00109281008091810082608093CA
:100C000081008091810081608093810080918000CB
:100C10008160809380008091B10084608093B100F6
:100C20008091B00081608093B000809191008260DB
:100C300080939100809191008160809391008091D8
:100C400090008160809390008091A10082608093E9
:100C5000A1008091A10081608093A1008091A000FB
:100C600081608093A00080912101826080932101A6
:100C70008091210181608093210180912001816018
:100C80008093200180917A00846080937A00809123
:100C90007A00826080937A0080917A0081608093EC
:100CA0007A0080917A00806880937A001092C10067
:100CB0008EEB95E048DA81E295E045DA8EE192E04C
:100CC000B8DC64E272E0CE01019651DD48EC50E000
:100CD0006BE172E0CE010196D4DC182FCE010196B3
:100CE0003FDD111109C087E292E0A3DC68EE73E0FA
:100CF00080E090E064DCE5CF88E392E09ADC6FE48A
:100D000072E0CE01019633DD64EF71E0CE01019611
:100D100067DDCE01019624DD66E572E0CE01019625
:100D200026DD64E670E0CE0101965ADDCE01019623
:100D300017DD62E672E0CE01019619DD64E670E02F
:100D4000CE0101964DDDCE0101960ADD6FE672E01F
:100D5000CE0101960CDD64E670E0CE01019640DD27
:100D6000CE010196FDDC6BE772E0CE010196FFDC5F
:100D700068E873E1CE01019633DDCE010196F0DC27
:100D80006AE972E0CE010196F2DC60ED77E0CE0117
:100D9000019626DDCE010196E3DC6CEA72E0CE011D
:100DA0000196E5DC64E670E0CE01019619DDCE0126
:100DB0000196D6DC23ED422E22E0522E3BE4E32EB8
:100DC00034E0F32E4AE2642E43E0742E03E813E08D
:100DD0005BEBA52E52E0B52E65E0862E912C99E5B1
:100DE000C92E93E0D92E80E4382E81E295E0ECDA2A
:100DF000181619060CF0BAC085EB92E01ADC1E82B8
:100E00001D82BA82A9829C828B82CE01019652DA1F
:100E1000892B59F781EC92E00CDC0DDA97FD05C0C7
:100E20008C32910511F08093130568E172E08EEB2E
:100E300095E0F6DB64EC72E08EEB95E0F1DB60911F
:100E400013058EEB95E000DB68E172E08EEB95E038
:100E5000E7DB80917B00877F80937B0030927C0072
:100E600080917A00806480937A0080917A0086FD78
:100E7000FCCF909178008091790089279827892765
:100E80009F938F935F924F92FF92EF9293D2F701CD
:100E900001900020E9F7CF018C5494409F938F93E9
:100EA00080911305282F082E000C330B3F938F934E
:100EB0007F926F921F930F937DD263E873E0CE0110
:100EC000019655DC44E650E068E273E0CE010196FD
:100ED000D8DB282ECE01019643DC0FB6F894DEBF96
:100EE0000FBECDBF222019F08BE393E0A2DB6BE4B1
:100EF00074E0CE0101963BDC44E650E06BE172E029
:100F0000CE010196BEDB282ECE01019629DC2220DF
:100F100019F08CE493E08DDB80911305282F082EC7
:100F2000000C330B3F938F93DF92CF921F930F935D
:100F300041D263E873E0CE01019619DC4AE050E04B
:100F40006BE172E0CE0101969CDB282ECE0101966A
:100F500007DC0F900F900F900F900F900F902220B2
:100F600009F443CF88E693E064DB3DCFD8DA37CF8E
:100F7000EE0FFF1F881F8BBF0790F691E02D19948D
:100F80000F931F93CF93DF938230910510F482E08B
:100F900090E0E0915D06F0915E0630E020E0B0E088
:100FA000A0E0309799F42115310509F44AC0281BB7
:100FB000390B24303105D8F58A819B816115710583
:100FC00089F1FB0193838283FE0111C0408151812D
:100FD0000281138148175907E0F04817590799F41F
:100FE000109761F012960C93129713961C933296F9
:100FF000CF01DF91CF911F910F91089500935D066E
:1010000010935E06F4CF2115310551F042175307B6
:1010100038F0A901DB019A01BD01DF01F801C1CF60
:10102000EF01F9CF90935E0680935D06CDCFFE0170
:10103000E20FF31F81939193225031093983288362
:10104000D7CF20915B0630915C06232B41F4209191
:1010500002023091030230935C0620935B062091DC
:101060000002309101022115310541F42DB73EB740
:101070004091040250910502241B350BE0915B0660
:10108000F0915C06E217F307A0F42E1B3F0B281724
:10109000390778F0AC014E5F5F4F2417350748F0F1
:1010A0004E0F5F1F50935C0640935B0681939193B4
:1010B0009FCFF0E0E0E09CCFCF93DF930097E9F083
:1010C000FC01329713821282A0915D06B0915E06F8
:1010D000ED0130E020E01097A1F420813181820FF2
:1010E000931F20915B0630915C062817390709F0A1
:1010F00061C0F0935C06E0935B06DF91CF910895A9
:10110000EA01CE17DF07E8F54A815B819E014115B0
:101110005105B1F7E901FB83EA8349915991C40F65
:10112000D51FEC17FD0761F4808191810296840F31
:10113000951FE90199838883828193819B838A83A8
:10114000F0E0E0E012968D919C9113970097B9F52D
:101150002D913C911197CD010296820F931F209102
:101160005B0630915C062817390739F6309751F540
:1011700010925E0610925D06B0935C06A0935B062B
:10118000BCCFD383C28340815181840F951FC81780
:10119000D90761F44E5F5F4F88819981480F591FCD
:1011A000518340838A819B819383828321153105FA
:1011B00009F0B0CFF0935E06E0935D069ECFFD018F
:1011C000DC01C0CF13821282D7CF4F925F926F9211
:1011D0007F928F929F92AF92BF92CF92DF92EF92C7
:1011E000FF920F931F93CF93DF938C01009791F49D
:1011F000CB01DF91CF911F910F91FF90EF90DF9086
:10120000CF90BF90AF909F908F907F906F905F90A6
:101210004F90B6CEFC01E60FF71F9C01225031091A
:10122000E217F30708F4AAC0D901CD91DC91119718
:10123000C617D70718F1C530D10570F0CE01049755
:101240008617970748F0C61BD70B2297C193D193F7
:101250006D937C93CF0130DFC801DF91CF911F9157
:101260000F91FF90EF90DF90CF90BF90AF909F9045
:101270008F907F906F905F904F9008955B01AC1AB4
:10128000BD0A4C018C0E9D1EA0915D06B0915E06BC
:10129000512C412CF12CE12C109731F580915B06FB
:1012A00090915C068815990509F05CC046165706B2
:1012B00008F058C08091000290910102009741F41B
:1012C0008DB79EB74091040250910502841B950B87
:1012D000E817F90708F052C0F0935C06E0935B064C
:1012E000F90171836083B8CF8D919C91119712960B
:1012F0006C90129713967C901397A815B90559F521
:101300006C0142E0C40ED11CCA14DB0420F1AC0114
:101310004A195B09DA011296159780F0628273828E
:1013200051834083D9016D937C93E114F10471F0F2
:10133000D7011396FC93EE9312978ECF22968C0FC3
:101340009D1FF90191838083F301EFCFF0935E0637
:10135000E0935D0681CF4816590608F42C017D0103
:10136000D3019ACFCB010CDE7C01009739F0AE019E
:10137000B80107D0C801A0DE87016ECF10E000E001
:101380006BCFFB01DC0102C001900D924150504037
:10139000D8F70895FB01DC018D91019080190110AF
:1013A000D9F3990B0895FB01DC0101900D92002007
:1013B000E1F708950F931F93CF93DF93CDB7DEB777
:1013C0002E970FB6F894DEBF0FBECDBF0E891F89D2
:1013D00086E08C831A8309838FEF9FE79E838D833A
:1013E000AE01465E5F4F688D798DCE01019611D0BA
:1013F0002F813885020F131FF80110822E960FB629
:10140000F894DEBF0FBECDBFDF91CF911F910F913A
:1014100008952F923F924F925F926F927F928F9298
:101420009F92AF92BF92CF92DF92EF92FF920F9373
:101430001F93CF93DF9300D000D000D01F921F9254
:10144000CDB7DEB77C013B018A01FC011782168211
:10145000838181FFD0C1CE0101965C01F7019381A8
:10146000F30193FD859193FF81913F01882309F456
:1014700049C1853239F493FD859193FF81913F01F4
:10148000853221F4B70190E0CFD1E8CF912C212C07
:10149000312CFFE1F31538F08B3211F190F48032EA
:1014A00009F1833229F137FC3CC020ED280F2A30A6
:1014B00050F536FE20C08AE0989E200D1124922E11
:1014C00006C08D3291F0803371F7689430F8F301E3
:1014D00093FD859193FF81913F018111DACF21C066
:1014E000689431F8689432F8F2CF689433F8EFCF0B
:1014F000689434F8ECCFEAE02E9E200D1124222EC1
:10150000689435F8E4CF8E3229F436FCFBC0689439
:1015100036F8DDCF8C3619F4689437F8D8CF883692
:10152000B1F2982F9F7D95549330D8F0833691F186
:101530008337B1F1833509F05EC02801F2E04F0E28
:10154000511CF801C080D180692D70E036FC02C0CA
:101550006FEF7FEFC60152D14C01689437F88201DA
:101560000AC00C5F1F4FFFE3F98388248394912CFA
:101570006501E89437F833FE2AC0522C8114910497
:1015800059F5552009F46ACFB70180E290E04CD1BB
:101590005A94F7CFF801808189830E5F1F4FE5CF02
:1015A0002801F2E04F0E511CF801C080D180692D56
:1015B00070E036FC02C06FEF7FEFC6012AD14C010C
:1015C0008201D7CFB70180E290E02ED12A9428146F
:1015D000190409F0B8F7D1CFF60137FC859137FE31
:1015E00081916F01B70190E01FD151105A94F1E041
:1015F0008F1A9108C3CF843619F0893609F073C069
:10160000F80137FE67C060817181828193810C5F30
:101610001F4FF32DFF763F2E97FF09C090958095C1
:10162000709561957F4F8F4F9F4F689437F82AE0F0
:1016300030E0A50129D1C82ECA188C2C432C36FEC7
:101640000CC0E89440F8C91440F434FE05C032FCE4
:1016500003C0F32DFE7E4F2E892C44FEA6C0FE0152
:10166000EC0DF11D8081803309F098C0242D297E76
:10167000422E842D8870582E43FCA5C040FE9FC08A
:101680009C2C821418F42C0C922C981844FEA1C0A7
:10169000B70180E390E0C8D042FE08C088E790E040
:1016A00041FE02C088E590E0B701BED0C91408F43D
:1016B0009CC0CA94D12C9FEFC91AD90ACA0CDB1C52
:1016C000F60182916F01B70190E0AED0AC14BD0479
:1016D000B9F757CF60817181072E000C880B990BE9
:1016E0000E5F1F4F96CFD32CE894D4F82AE030E059
:1016F0008537E1F1232D297FD22E8F36A9F1F0F421
:10170000883551F1F701868197812B960FB6F894B1
:10171000DEBF0FBECDBFDF91CF911F910F91FF9024
:10172000EF90DF90CF90BF90AF909F908F907F9081
:101730006F905F904F903F902F900895803749F0C1
:10174000883701F7D4FE02C06894D2F820E130E077
:101750000DC06894D4F8F6CF34FE03C0822F8660A3
:10176000D82E20E132E002C028E030E0F801D7FEB8
:101770000EC060817181828193810C5F1F4FA50132
:1017800083D0C82ECA183D2CE89437F856CF608114
:10179000718190E080E00E5F1F4FF1CF42FC02C0EC
:1017A000839467CF8394839464CF842D867809F4DF
:1017B00060CFF6CFB70180E290E036D083948214F8
:1017C000C8F3512C63CF522C5818821408F45ECF02
:1017D000F8CF842D867809F469CF8BE241FE80E250
:1017E00047FC8DE2B70190E060CFB70180E390E065
:1017F0001BD09A945BCF8FEF9FEF87CFFC010590B2
:10180000615070400110D8F7809590958E0F9F1F02
:101810000895FC016150704001900110D8F7809547
:1018200090958E0F9F1F08950F931F93CF93DF9373
:10183000182F092FEB018B8181FD09C01FEF0FEFDE
:10184000812F902FDF91CF911F910F91089582FFEB
:1018500014C02E813F818C819D81281739073CF46B
:10186000E881F981CF0101969983888310838E8165
:101870009F8101969F838E83E3CFE885F985812F31
:101880001995892BA1F3DACFFA01AA27283051F153
:10189000203181F1E8946F936E7F6E5F7F4F8F4FA1
:1018A0009F4FAF4FB1E03ED0B4E03CD0670F781F00
:1018B000891F9A1FA11D680F791F8A1F911DA11DE5
:1018C0006A0F711D811D911DA11D20D009F468941E
:1018D0003F912AE0269F11243019305D3193DEF6C6
:1018E000CF010895462F4770405D4193B3E00FD07C
:1018F000C9F7F6CF462F4F70405D4A3318F0495D67
:1019000031FD4052419302D0A9F7EACFB4E0A69549
:101910009795879577956795BA95C9F7009761056B
:10192000710508959B01AC010A2E069457954795C1
:1019300037952795BA95C9F7620F731F841F951FB6
:08194000A01D0895F894FFCFEB
:1019480000005F068000000000002402CB00F800C1
:101958007002E4010701D6010D0A004F4B005374D1
:1019680061727400415400426C6164206B6F6D7544
:101978006E696B61636A6900526F7A706F637A652A
:10198800746F206B6F6D756E696B61636A6500417A
:10199800542B5253540041542B43574D4F44453D0B
:1019A800310041542B4349504D4F44453D3000418F
:1019B800542B4349504D55583D310041542B435702
:1019C8004A41503D2245534E45545F3335222C221F
:1019D8003137373737373737220041542B4349508F
:1019E8005345525645523D312C38300041542B4313
:1019F80049465352007768696C65002B4950442C5E
:101A0800006966005A61707974616E69652049449D
:101A18003A20003C68746D6C3E3C686561643E3CED
:101A28007469746C653E544553543C2F7469746CE6
:101A3800653E3C2F686561643E3C626F64793E3C5C
:101A480068323E776172746FC59BC487206E6120CF
:101A580041303A2025643C2F68323E3C2F626F6447
:101A6800793E3C2F68746D6C3E0041542B434950BD
:101A780053454E443D25632C2564007A6164616EAC
:101A88006965207779736C616E6961005779736C49
:101A9800616E6F2064616E650041542B4349504369
:101AA8004C4F53453D2563005A616D6B6E696574F3
:0E1AB8006F20706F6C61637A656E6965000067
:00000001FF
